:100000000C946D020C948A020C948A020C948A025D
:100010000C948A020C948A020C948A020C948A0230
:100020000C948A020C948A020C9450170C948A1730
:100030000C948A020C948A020C948A020C948A0210
:100040000C948A020C948A020C948A020C948A0200
:100050000C948A020C948A020C948A020C94C202B8
:100060000C948A020C945C190C9431190C948A0239
:100070000C948A020C948A020C948A020C948A02D0
:100080000C948A020C948A020C948A020C94E80262
:100090000C948A020C948A020C948A020C948A02B0
:1000A0000C948A020C948A020C948A02F116ED16C2
:1000B000E916E516E116DD16D916D516D116CD16B8
:1000C000C916C516C116BD16B916B516B116AD16A8
:1000D000A916A516A1169D169916951691168D1698
:1000E0008916851681167D167916751671166D1688
:1000F0006916651661165D165916551651164D1678
:100100004916451641163D163916351631162D1667
:100110002916251621161D161916151611160D1657
:10012000091605160116FD15F915F515F1156E617F
:100130006E00696E660000407A10F35A00A0724E9D
:1001400018090010A5D4E80000E87648170000E47C
:100150000B54020000CA9A3B000000E1F5050000C4
:1001600080969800000040420F000000A086010029
:100170000000102700000000E803000000006400F9
:10018000000000000A000000000001000000000064
:100190002C76D888DC674F0823DFC1DFAE59E1B188
:1001A000B796E5E3E453C63AE651997696E8E6C297
:1001B0008426EB898C9B62ED407C6FFCEFBC9C9F9E
:1001C00040F2BAA56FA5F490055A2AF75C936B6CC0
:1001D000F9676DC11BFCE0E40D47FEF520E6B500B4
:1001E000D0ED902E0300943577050080841E080022
:1001F00000204E0A000000C80C333333330F986ED2
:1002000012831141EF8D2114893BE65516CFFEE68E
:10021000DB18D1844B381BF77C1D901DA4BBE42454
:10022000203284725E228100C9F124ECA1E53D27D1
:1002300000010000DD0212000200009A02430003E8
:100240000000960204010309048002140203090459
:10025000680216030309045A020C0C033100320031
:1002600033003400350000001603550053004200EF
:100270002000530065007200690061006C000000FE
:10028000140359006F007500720020004E006100D9
:100290006D00650000000403090409024300020127
:1002A00000C0320904000001020201000524001010
:1002B00001052401010104240206052406000107AA
:1002C00005820310004009040100020A0000000733
:1002D00005030240000007058402400000120100EF
:1002E0000202000010C0167A04000101020301009E
:1002F00001C11201803601813600000000000000BB
:100300005F00000007000700147F147F14242A7F79
:100310002A1223130864623649552250000503004F
:1003200000001C2241000041221C0014083E081459
:1003300008083E08080050300000080808080800B7
:100340006060000020100804023E5149453E004212
:100350007F400042615149462141454B31181412FA
:100360007F1027454545393C4A4949300171090507
:10037000033649494936064949291E0036360000E8
:1003800000563600000814224100141414141400FE
:10039000412214080201510906324979413E7E1179
:1003A00011117E7F494949363E414141227F4141F9
:1003B000221C7F494949417F090909013E414949B8
:1003C0007A7F0808087F00417F41002040413F01BB
:1003D0007F081422417F404040407F020C027F7F13
:1003E0000408107F3E4141413E7F090909063E4114
:1003F00051215E7F09192946464949493101017F4A
:1004000001013F4040403F1F2040201F3F403840F7
:100410003F63140814630708700807615149454396
:10042000007F41410002040810200041417F000488
:1004300002010204404040404000010204002054F8
:100440005454787F48444438384444442038444421
:10045000487F3854545418087E0901020C525252F5
:100460003E7F0804047800447D40002040443D0065
:100470007F1028440000417F40007C041804787CF1
:100480000804047838444444387C141414080814CC
:1004900014187C7C080404084854545420043F4435
:1004A00040203C4040207C1C2040201C3C403040F0
:1004B0003C44281028440C5050503C4464544C4454
:1004C000000836410000007F00000041360800109F
:1004D0000808100878464146780011241FBECFEF67
:1004E000DAE0DEBFCDBF12E0A0E0B1E0E0EEFAE47A
:1004F00002C005900D92A833B107D9F726E0A8E312
:10050000B2E001C01D92AA35B207E1F70E94C914FA
:100510000C946E250C9400008091640220910401DB
:100520009FB1880F822395FB992790F9892B80939F
:10053000640280916402281303C081E08093010368
:1005400080916402811102C010920103089580918C
:100550006302209104019FB1880F822396FB9927A3
:1005600090F9892B8093630280916302281303C062
:1005700081E08093A90380916302811102C01092EF
:10058000A90308951F920F920FB60F9211242F9373
:100590003F934F935F936F937F938F939F93AF930B
:1005A000BF93EF93FF930E948C020E94A702FF91DA
:1005B000EF91BF91AF919F918F917F916F915F91DB
:1005C0004F913F912F910F900FBE0F901F90189554
:1005D0001F920F920FB60F9211248F939F93AF9398
:1005E000BF9380915D028111C9C080914C029091AE
:1005F0004D02A0914E02B0914F020196A11DB11D76
:1006000080934C0290934D02A0934E02B0934F0200
:100610008091580290915902CC978CF010924C0224
:1006200010924D0210924E0210924F02809156028B
:1006300090915702019690935702809356028091B1
:100640005402909155020597C4F480915C0288236E
:10065000A1F08091480290914902A0914A02B09184
:100660004B020196A11DB11D80934802909349024F
:10067000A0934A02B0934B0208C010924802109215
:10068000490210924A0210924B02809152029091BC
:1006900053020597C4F480915C028823A1F08091F5
:1006A000440290914502A0914602B0914702019602
:1006B000A11DB11D8093440290934502A093460270
:1006C000B093470208C01092440210924502109263
:1006D00046021092470280913C0290913D02A09107
:1006E0003E02B0913F020196A11DB11D80933C02D4
:1006F00090933D02A0933E02B0933F0280915F022F
:10070000811114C08091400290914102A091420257
:10071000B09143020196A11DB11D809340029093B8
:100720004102A0934202B093430208C010924002DB
:1007300010924102109242021092430280915E0296
:100740008823A1F08091380290913902A0913A0259
:10075000B0913B020196A11DB11D80933802909388
:100760003902A0933A02B0933B0208C010923802BB
:100770001092390210923A0210923B02BF91AF914F
:100780009F918F910F900FBE0F901F901895CF9251
:10079000DF92EF92FF92CF93DF93C0919400D091BC
:1007A0009500BC01990F880B990B0E94C42020E092
:1007B00030E040E857E40E9425226B017C01BE0135
:1007C00080E090E00E94C2209B01AC01C701B6010D
:1007D0000E94A91F20E034E244EF5AE40E941A204C
:1007E000DF91CF91FF90EF90DF90CF9008951F930E
:1007F000CF93DF93D82FC62F122F5F934F9382E1B1
:1008000091E09F938F931F9282E38F9387E793E00A
:100810009F938F930E949F248DB79EB708960FB623
:10082000F8949EBF0FBE8DBF6C2F70E0212F47E75D
:1008300053E08D2F90E0DF91CF911F910C949F1B7F
:100840001F93CF93DF93D82FC62F122F5F934F9311
:1008500087E191E09F938F931F9282E38F9387E7C5
:1008600093E09F938F930E949F248DB79EB7089625
:100870000FB6F8949EBF0FBE8DBF6C2F70E0212F76
:1008800047E753E08D2F90E0DF91CF911F910C94BB
:100890009F1BFC0101900020E9F73197BF01681B05
:1008A000790B0C949E15FB01EE0FFF1FE80FF91F4B
:1008B0008091540290915502681779073CF4828127
:1008C0009381819391936F5F7F4FF2CF089521E0E1
:1008D0004AE151E060E070E080E190E00E949F1BFF
:1008E00021E046E251E06AE070E085E190E00E949C
:1008F0009F1B21E040E351E064E170E08CE090E078
:100900000E949F1B21E04EE351E06EE170E085E123
:1009100090E00E949F1B21E047E451E068E270E014
:1009200080E190E00C949F1BCF92DF92EF92FF92B8
:100930000F931F93CF93DF930E9465236C010E9456
:1009400065237C01C5EDD2E009E010E0C601B801E5
:100950000E949222BC0160957095072E000C880BB6
:10096000990B0E94C4202DEC3CEC4CEC5DE30E9402
:100970002522688B798B8A8B9B8BC701B8010E94DB
:100980009222BC0160957095072E000C880B990B84
:100990000E94C4202DEC3CEC4CEC5DE30E9425222F
:1009A0006C8B7D8B8E8B9F8BDF91CF911F910F91E5
:1009B000FF90EF90DF90CF900895E2E0F3E0138690
:1009C000128681E090E0958784872FEF3FEF37878D
:1009D0002687918B808B138A128A358B248B378BD9
:1009E000268B118E108E138E128E958F848F978F7B
:1009F000868F91A380A3E5EDF2E0118E108E338FE8
:100A0000228F958F848F378F268F91A380A313A277
:100A100012A235A324A337A326A391A780A793A747
:100A200082A7EAEDF3E0158A148A978B868B918F63
:100A3000808F138E128E158E148E978F868F11A233
:100A400010A293A382A39093430480934204109234
:100A50004504109244043093470420934604909335
:100A600049048093480430934B0420934A049093A4
:100A70004D0480934C0430934F0420934E04109205
:100A80005104109250049093530480935204909315
:100A90005504809354049093570480935604109205
:100AA00059041092580410925B0410925A04309327
:100AB0005D0420935C0430935F0420935E043093C4
:100AC00061042093600411AE10AE13AE12AE15AEE9
:100AD00014AE37AF26AF90931B0480931A04109284
:100AE0001D0410921C0430931F0420931E04909345
:100AF00021048093200490932304809322049093F4
:100B000025048093240410922B0410922A0410923E
:100B10002D0410922C0410922F0410922E04309366
:100B20003104209330049093330480933204109264
:100B30003504109234043093370420933604909394
:100B400039048093380410923B0410923A041092B6
:100B50003D0410923C04089580910201909103019C
:100B60008130910509F07AC040E050E06EE972E40E
:100B70004093D5025093D6026093D7027093D80267
:100B800040E050E06CE172E44093D9025093DA0205
:100B90006093DB027093DC02909303038093020363
:100BA0008BE090E0909305038093040382E190E052
:100BB0009093AB038093AA038DE090E09093AD03F4
:100BC0008093AC0389E190E09093AF038093AE03F0
:100BD0009093B1038093B0032DE230E03093B303E0
:100BE0002093B2034CE350E05093B5034093B40319
:100BF0004AE350E05093B7034093B60348E450E013
:100C00005093B9034093B8034FE050E05093C303AF
:100C10004093C2039093C5038093C40343E250E022
:100C20005093C7034093C6033093C9032093C8036E
:100C30002AE030E03093CB032093CA033093CD03F6
:100C40002093CC039093CF038093CE038EE190E06A
:100C50009093D1038093D0030E94DD048091D5024C
:100C60009091D602A091D702B091D8028093DD0274
:100C70009093DE02A093DF02B093E0028091D9024C
:100C80009091DA02A091DB02B091DC028093E10244
:100C90009093E202A093E302B093E40280910203F6
:100CA00090910303909307038093060380910403BC
:100CB00090910503909309038093080380910201AA
:100CC00090910301029731F40E94D3140E94EC1416
:100CD0008823E1F30895CF93E1E6F0E080E8808394
:100CE000C1E0C0838FE20E94E21B0E94121C209888
:100CF000219850985198279885988698229A239AF7
:100D00005198279810929000C0939100C093710061
:100D100014BC84E085BDC0936E0078940E94670483
:100D20000E94AC05CF910C9483190F9380914C02D3
:100D300090914D02A0914E02B0914F020E94C703C4
:100D40000E948C20709359026093580201E029E0C0
:100D500030E044E550E069E070E080E090E00E941F
:100D6000D71921E043E551E060E070E080E090E0D9
:100D70000E949F1B409102015091030121E060E01D
:100D80008EE00E94200421E047E551E060E070E041
:100D900088E190E00E949F1B409100015091010169
:100DA00021E060E08EE10E94200421E049E551E06D
:100DB00060E070E088E290E00E949F1B40915A0240
:100DC00050915B0221E060E08EE20E94200480915D
:100DD00056029091570265E070E00E949222AB01AA
:100DE00021E060E08CE30E94F70321E04BE551E055
:100DF00060E070E086E490E00E949F1B4091580202
:100E00005091590221E060E08AE40F910C94F703BD
:100E1000CF93DF93CCE0D3E0FE01229660910803EC
:100E20007091090384859585680F791F20910603C9
:100E3000309107038081918141E0820F931F0E94CE
:100E40009E1983E0C831D80739F7DF91CF91089513
:100E5000AF92BF92CF92DF92EF92FF920F931F93C8
:100E6000CF93DF93CDEED2E007EF12E05E01229642
:100E7000F50162857385072E000C880B990B0E9483
:100E8000C4202091E1023091E2024091E3025091AE
:100E9000E4020E94A91F0E948C206B017C01F501D5
:100EA00060817181072E000C880B990B0E94C42071
:100EB0002091DD023091DE024091DF025091E0028C
:100EC0000E94A91F0E948C20DC01CB0141E0B601E9
:100ED0000E949E190C171D0749F6DF91CF911F91B3
:100EE0000F91FF90EF90DF90CF90BF90AF9008955B
:100EF0002F923F924F925F926F927F928F929F922A
:100F0000AF92BF92CF92DF92EF92FF920F931F9317
:100F1000CF93DF93CAEAD3E084E5282E312C9AE000
:100F2000892E912C80915D0281117BC080915C02A1
:100F3000811177C0A880B980CA80DB80B5016C19A7
:100F40007D09072E000C880B990B0E94C4202DEC04
:100F50003CEC4CEC5DE30E9425220E948C202B018E
:100F60003C01E88CF98C0A8D1B8DB701601B710B5D
:100F7000072E000C880B990B0E94C4202DEC3CEC32
:100F80004CEC5DE30E9425220E948C20A60EB71E29
:100F9000B982A882C60ED71EDB82CA82E40CF51C79
:100FA000F98EE88E040D151D1B8F0A8F25E5A216FC
:100FB000B10444F035E5C316D10424F01982188237
:100FC0005B824A8221E3E216F10454F001331105F9
:100FD0003CF0998E888E9B01265F3F4F3B8F2A8F76
:100FE0002881398137FF0BC02A813B8137FF07C039
:100FF0003982288234E5430E511C5B824A82288D57
:10100000398D2A3031056CF42A8D3B8D2A3031051B
:1010100044F420E330E0398F288F605D7F4F7B8F71
:101020006A8F2A8D3B8D4A815B81688D798D01E0C5
:10103000888199810E94D719249633E0CA3BD3074F
:1010400009F070CFDF91CF911F910F91FF90EF903A
:10105000DF90CF90BF90AF909F908F907F906F90D8
:101060005F904F903F902F9008952F923F924F9214
:101070005F926F927F928F929F92AF92BF92CF9228
:10108000DF92EF92FF920F931F93CF93DF93CDB731
:10109000DEB76E970FB6F894DEBF0FBECDBF2AEA5B
:1010A00033E03C832B83AB81BC810D90BC91A02DA0
:1010B000BE83AD83EB81FC8142805380208D318DD6
:1010C00038872F83628C738CA415B50509F063C132
:1010D0003E8F2D8FCD01092E000CAA0BBB0B898FE3
:1010E0009A8FAB8FBC8FEF81F885E615F70534F446
:1010F0002D8D3E8D621673063CF505C08D8D9E8D3F
:10110000861597050CF5AB81BC811496BC83AB8327
:10111000AA5BB34041F66E960FB6F894DEBF0FBEE1
:10112000CDBFDF91CF911F910F91FF90EF90DF9096
:10113000CF90BF90AF909F908F907F906F905F9077
:101140004F903F902F900895F0915E02F9870091A3
:1011500006031091070320910803309109033B8790
:101160002A8730910A033C878091DD029091DE024C
:10117000A091DF02B091E0028D879E87AF87B88B88
:101180008091E1029091E202A091E302B091E40229
:10119000898B9A8BAB8BBC8BC090E502D090E6021A
:1011A000E090E702F090E802A5EDB2E0BA83A983EF
:1011B00022E0422E23E0522E212C312C8D8D9E8D4B
:1011C000092E000CAA0BBB0B8D8B9E8BAF8BB88F9F
:1011D0009985911121C0D2011A968D919C911B97EE
:1011E000800F911FED81FE81E817F907A9F456964B
:1011F0008D919C9157972A853B85820F931FAD8DCA
:10120000BE8DA817B90741F4BC85BB2319F0015066
:10121000110902C00F5F1F4F2114310409F452C09D
:101220006D857E858F8598890E94FF204B015C012A
:10123000E981FA8166897789072E000C880B990B62
:101240000E94C420A50194010E94A91F4B015C01CA
:10125000698D7A8D8B8D9C8D0E94C4209B01AC0181
:10126000C501B4010E94152081112CC069897A89B9
:101270008B899C890E94FF204B015C01A981BA8166
:1012800090966D917C919197072E000C880B990B8D
:101290000E94C420A50194010E94A91F4B015C017A
:1012A0006D897E898F89988D0E94C4209B01AC0135
:1012B000C501B4010E941520811104C0F7FAF09411
:1012C000F7F8F094BFEF2B1A3B0AE981FA813296C6
:1012D000FA83E983F2E04F0E511C26E02216310416
:1012E00009F076CF1093070300930603C092E5023E
:1012F000D092E602E092E702F092E802809150027A
:1013000090915102181619065CF08F819885861508
:101310009705DCF58D8D9E8D01969E8F8D8FE3CE8A
:1013200036E2E32E33E0F32E00E010E0809150022D
:10133000909151020817190744F7D7018D919D919B
:101340007D01ED81FE81E817F907E1F496968D9114
:101350009C9197972D8D3E8D2817390799F4B801E8
:1013600086E293E00E945304B8018EE493E00E9469
:101370005304809150029091510201979093510231
:10138000809350020F5F1F4FD1CFAD8DBE8D11974F
:10139000BE8FAD8FA8CEAF81B885A615B70509F071
:1013A000B2CEED81FE81FE8FED8FCD01092E000CB6
:1013B000AA0BBB0B898F9A8FAB8FBC8FED81FE81FF
:1013C000E415F50534F42D8D3E8D421653063CF49C
:1013D0009ACE8D8D9E8D841595050CF494CE9091AA
:1013E0005E029987A0910603B0910703BB87AA8785
:1013F000B0910B03BC870091080310910903809101
:10140000DD029091DE02A091DF02B091E0028D87B3
:101410009E87AF87B88B8091E1029091E202A09104
:10142000E302B091E402898B9A8BAB8BBC8BC090AA
:10143000E902D090EA02E090EB02F090EC02A5ED18
:10144000B2E0BA83A98382E0682E83E0782E212C53
:10145000312C8D8D9E8D092E000CAA0BBB0B8D8B14
:101460009E8BAF8BB88F9985911121C0D3011A96AD
:101470008D919C911B97EA85FB858E0F9F1F2D8D6B
:101480003E8D2817390799F456968D919C91579760
:10149000800F911FAF81B885A817B90741F4BC85AB
:1014A000BB2319F00150110902C00F5F1F4F211417
:1014B000310409F452C06D857E858F8598890E941C
:1014C000FF204B015C01E981FA8166897789072E4B
:1014D000000C880B990B0E94C420A50194010E9466
:1014E000A91F4B015C016D897E898F89988D0E94AF
:1014F000C4209B01AC01C501B4010E9415208111DB
:101500002CC069897A898B899C890E94FF204B01B4
:101510005C01A981BA8190966D917C919197072E7B
:10152000000C880B990B0E94C420A50194010E9415
:10153000A91F4B015C01698D7A8D8B8D9C8D0E945A
:10154000C4209B01AC01C501B4010E94152081118A
:1015500004C0F7FAF094F7F8F094BFEF2B1A3B0AA7
:10156000E981FA813296FA83E983F2E06F0E711C09
:1015700026E02216310409F076CF10930903009378
:101580000803C092E902D092EA02E092EB02F092E4
:10159000EC028091500290915102181619065CF0ED
:1015A0008D819E8184159505DCF58D8D9E8D01962E
:1015B0009E8F8D8F03CF96E2E92E93E0F92E00E007
:1015C00010E080915002909151020817190744F7DA
:1015D000D7018D919D917D01ED8DFE8DE817F90765
:1015E000E1F496968D919C9197972F8138852817D5
:1015F000390799F4B80186E293E00E945304B801D8
:101600008EE493E00E945304809150029091510225
:10161000019790935102809350020F5F1F4FD1CFDB
:10162000AD8DBE8D1197BE8FAD8FC8CE1F93CF935A
:10163000DF93809159028F93809158028F9380910C
:1016400057028F93809156028F938DE591E09F937F
:101650008F931F9212E31F93C7E7D3E0DF93CF93DB
:101660000E949F24CE010E944904809103018F9320
:10167000809102018F9385E791E09F938F931F9252
:101680001F93DF93CF930E949F24CE010E944904B1
:10169000809101018F93809100018F938AE891E0FE
:1016A0009F938F931F921F93DF93CF930E949F244A
:1016B000CE010E94490480915B028F9380915A026F
:1016C0008F938FE991E09F938F931F921F93DF93E6
:1016D000CF930E949F248DB79EB782960FB6F89441
:1016E0009EBF0FBE8DBFCE010E9449048091510262
:1016F0008F93809150028F938CEA91E09F938F9308
:101700001F921F93DF93CF930E949F24CE010E94CC
:101710004904809153028F93809152028F9387ECFA
:1017200091E09F938F931F921F93DF93CF930E941B
:101730009F24CE010E944904809155028F9380918D
:1017400054028F938EED91E09F938F931F921F937E
:10175000DF93CF930E949F24CE010E944904E2E0D0
:10176000F3E083A18F9382A18F9386EF91E09F9303
:101770008F931F921F93DF93CF930E949F248DB767
:101780009EB780960FB6F8949EBF0FBE8DBFCE0158
:101790000E94490480915E021F928F938DE092E037
:1017A0009F938F931F921F93DF93CF930E949F2449
:1017B000CE010E94490480915D021F928F938EE1B9
:1017C00092E09F938F931F921F93DF93CF930E947A
:1017D0009F248DB79EB740960FB6F8949EBF0FBE5C
:1017E0008DBFCE01DF91CF911F910C944904CF930F
:1017F000DF930E941215882321F00E94EF14EC0160
:1018000002C0C0E0D0E0199903C0C136D10571F41F
:101810008091060390910703823091053CF0019777
:10182000909307038093060310920A03489903C01C
:10183000C436D10579F4809106039091070382356F
:10184000910544F40196909307038093060381E089
:1018500080930A03499903C0C737D10571F4809179
:101860000803909109038C3091053CF00197909307
:1018700009038093080310920B031F9903C0C33719
:10188000D10579F480910803909109038E32910576
:1018900044F40196909309038093080381E08093B8
:1018A0000B03189903C0C636D10519F5809124039E
:1018B000909125030397ECF080913C0290913D02BA
:1018C000A0913E02B0913F020E94C70320E030E0A9
:1018D00040E85FE30E94202287FD0BC081E08093F7
:1018E000760310923C0210923D0210923E0210923A
:1018F0003F028091A903811103C0CC36D10569F460
:101900008091020190910301019721F481E080937D
:10191000620203C081E08093610280910103813003
:1019200019F0C037D10551F480915C02882331F061
:1019300090915D0281E0892780935D02C936D105CF
:1019400021F4DF91CF910C94160BDF91CF91089584
:101950002F923F924F925F926F927F928F929F92BF
:10196000AF92BF92CF92DF92EF92FF920F931F93AD
:10197000CF93DF93CDB7DEB7A1970FB6F894DEBF54
:101980000FBECDBF80915D02811181C0C090E50284
:10199000D090E602E090E702F090E8022091DD02AC
:1019A0003091DE024091DF025091E002C701B601A2
:1019B0000E94A91F2B013C016093DD027093DE029F
:1019C0008093DF029093E0028091E9029091EA0215
:1019D000A091EB02B091EC0289839A83AB83BC8324
:1019E0002091E1023091E2024091E3025091E40241
:1019F000BC01CD010E94A91F4B015C016093E10273
:101A00007093E2028093E3029093E40220E030E0DE
:101A100040E85FE3C301B2010E941520181654F498
:101A200020E030E046EA52E4C301B2010E942022E5
:101A300087FD0CC0F7FAF094F7F8F094C092E50235
:101A4000D092E602E092E702F092E80220E030E075
:101A500040E351E4C501B4010E941520181654F466
:101A600020E030E04CE352E4C501B4010E942022A2
:101A700087FD0DC089819A81AB81BC81B05880936C
:101A8000E9029093EA02A093EB02B093EC029091EA
:101A900002039D87A0910303AE8700910603109176
:101AA0000703B0910403BF87E0910503E88B209002
:101AB000080330900903F091D502F98B2091D602EA
:101AC0002A8B3091D7023B8B8091D8028C8BA090CF
:101AD000DD02B090DE02C090DF02D090E002909173
:101AE000D9029D8BA091DA02AE8BB091DB02BF8B45
:101AF000E091DC02E88FE090E102F090E202F091E8
:101B0000E302F8A32091E40229A330915E023B8F07
:101B100080905A0290905B028091000190910101A7
:101B200098878F83ACE0B3E0BE83AD83AD81BE8187
:101B3000ED91FD91BE83AD83FA8FE98F2DEE32E0FA
:101B40003A832983B501C6010E94FF202B013C0185
:101B5000E981FA8121913191FA83E9833A872987D2
:101B6000698D7A8D600F711F072E000C880B990B01
:101B70000E94C4206C8F7D8F8E8F9F8FA985BA8520
:101B8000BD01BB0F880B990B0E94C420A3019201D9
:101B90000E94A91F9B01AC016C8D7D8D8E8D9F8D48
:101BA0000E941520811151C0B70188A199A10E94FE
:101BB000FF202B013C01ED81FE8162857385620D62
:101BC000731D072E000C880B990B0E94C420698797
:101BD0007A878B879C87A981BA8118966D917C91B1
:101BE0001997072E000C880B990B0E94C420A301A3
:101BF00092010E94A91F9B01AC0169857A858B85A2
:101C00009C850E941520811120C0BB8DB1110CC094
:101C1000EF81F8853197F887EF83ED88FE88FF899B
:101C2000F8A3288D29A309C03FEF831A930AED88F2
:101C3000FE888F8988A3988D99A32F843888A988D6
:101C4000BA88CB88DC880D851E85A981BA81A75FFB
:101C5000B24009F077CF2D813E812851334009F001
:101C600065CF1093070300930603C501D601809347
:101C7000DD029093DE02A093DF02B093E002309287
:101C8000090320920803C701A8A1B9A18093E1022A
:101C90009093E202A093E302B093E4028F819885CF
:101CA000909301018093000190925B0280925A020E
:101CB000A1960FB6F894DEBF0FBECDBFDF91CF91D6
:101CC0001F910F91FF90EF90DF90CF90BF90AF905A
:101CD0009F908F907F906F905F904F903F902F904C
:101CE0000895809162028823E1F01092620282E0FE
:101CF00090E090930301809302011092550210929C
:101D00005402109225031092240310925302109251
:101D100052021092600210925102109250020C94E2
:101D2000AC05089580916102882309F454C00E9493
:101D3000961980916102882381F021E04CE252E003
:101D400060E170E085E190E00E949F1B0E94831992
:101D50007D9BEFCF10926102ECCF1092620281E086
:101D600090E090930301809302011092550210922B
:101D700054021092250310922403109253021092E1
:101D800052021092600210925B0210925A0210925C
:101D90004C0210924D0210924E0210924F0210927D
:101DA00048021092490210924A0210924B0210927D
:101DB000440210924502109246021092470285E0BA
:101DC00090E09093010180930001109251021092D3
:101DD00050020C94AC0508958F929F92AF92BF92DF
:101DE000CF92DF92EF92FF920F931F93CF93DF93E7
:101DF0008091480290914902A0914A02B0914B0211
:101E00000E94C7036B017C0180915D02811154C067
:101E1000C0915402D0915502C530D1050CF04CC090
:101E200020E030E040E050E4C701B6010E942121EB
:101E30004B015C012CEE31E548E35DEB0E94202272
:101E40001816D4F52CEE31E548E35DE3C501B40185
:101E50000E94152087FF30C020E030E040E050E4D1
:101E6000C701B6010E94202287FD26C00E9465237B
:101E7000CC0FDD1FC652DC4F63E570E00E9492225A
:101E800099838883C0915402D09155020E946523A2
:101E9000CC0FDD1FCC51DC4F65E270E00E94922236
:101EA0000A969983888380915402909155020196F5
:101EB00090935502809354023AEDE32E33E0F32ED3
:101EC0008701C12CD12C8091540290915502C816E3
:101ED000D90604F5CEEED3E0FE012296D8011A967B
:101EE0006D917C911B9780859185680F791F2D914D
:101EF0003C918081918141E0820F931F0E949E1945
:101F0000B3E0C63FDB0741F7EFEFCE1ADE0A0E5F04
:101F10001F4FD9CF00E010E08EE0C82E83E0D82E0E
:101F200096EFA92E93E0B92E80915402909155021C
:101F3000081719070CF061C0C2E0D3E02EEE822E24
:101F400023E0922ED4014D915D914D0180910603C5
:101F5000909107032A853B85280F391FF70180815F
:101F60009181840F951F28173907C1F52091080327
:101F7000309109038E899F89280F391F4285538527
:101F800016968D919C911797840F951F28173907E6
:101F900029F5B8018AED93E00E945304B80184EE5C
:101FA00093E00E945304809154029091550201974E
:101FB00090935502809354028091240390912503BD
:101FC0000196909325038093240380915A02909167
:101FD0005B02019690935B0280935A02A814B904A5
:101FE00009F0B0CF2296CC16DD0609F0A7CF0F5F1F
:101FF0001F4FF2E0EF0EF11C97CFDF91CF911F91B1
:102000000F91FF90EF90DF90CF90BF90AF909F9097
:102010008F900895AF92BF92CF92DF92EF92FF928E
:102020000F931F93CF93DF9380915D02811123C0A3
:1020300080912403909125030597ECF08091600234
:10204000811119C00E94652362E570E00E9492220E
:10205000019690933F0480933E040E94652364E2BE
:1020600070E00E9492220B9690934104809340046A
:1020700081E0809360028091600281111BC06091B9
:10208000060370910703C0913E04D0913F04009174
:10209000080310910903E0904004F090410440913E
:1020A000020150910301A0906102B0906202ACE085
:1020B000B3E01CC0C2E4D4E0FE012296609140046B
:1020C0007091410480899189680F791F20913E04A5
:1020D00030913F048081918141E0820F931F0E94E3
:1020E0009E1924E0C235D20739F7C9CF8D919D9151
:1020F000860F971FE2E4F4E0219131912C0F3D1FF0
:1021000082179307C1F41A96CD90DC901B97C00EEE
:10211000D11E268537852E0D3F1DC216D30659F4D4
:102120004130510531F04230510529F4AA24A394DD
:1021300002C0BB24B39424E0E235F207E9F683E061
:10214000A831B80799F6A0926102B0926202DF91BD
:10215000CF911F910F91FF90EF90DF90CF90BF90A4
:10216000AF9008958F929F92AF92BF92CF92DF92DD
:10217000EF92FF920F931F93CF93DF9380914402CE
:1021800090914502A0914602B09147020E94C70378
:102190006B017C0180915D02811157C0C091520298
:1021A000D0915302C530D1050CF04FC020E030E093
:1021B00040E450E4C701B6010E9421214B015C01BB
:1021C0002AE037ED43E25DEB0E9420221816ECF581
:1021D0002AE037ED43E25DE3C501B4010E9415201A
:1021E00087FF33C020E030E040E450E4C701B6018F
:1021F0000E94202287FD29C08E01000F111F02506E
:102200001C4F6091DD027091DE028091DF0290919F
:10221000E0020E948C20D8016D937C938E01000F08
:10222000111F085F1B4F6091E1027091E2028091E3
:10223000E3029091E4020E948C20F8017183608394
:102240002196D0935302C09352023AEDE32E33E02D
:10225000F32E8701C12CD12C809152029091530210
:10226000C816D90614F5C2E1D4E0FE012296D801C1
:102270009E966D917C919F9782859385680F791FBB
:1022800094962D913C9195978081918141E0820FA8
:10229000931F0E949E19B4E0CC31DB0731F7EFEFBA
:1022A000CE1ADE0A0E5F1F4FD7CF80915E028111DA
:1022B0006AC000E010E08EE0C82E83E0D82E9CE1DA
:1022C000A92E94E0B92E80915202909153020817E2
:1022D00019070CF058C0C2E0D3E022E1822E24E0BE
:1022E000922ED4014D915D914D0180910603909104
:1022F00007032A853B85280F391FF70184A195A183
:10230000840F951F2817390779F52091080330911C
:1023100009038E899F89280F391F46A557A518964E
:102320008D919C911997840F951F28173907E1F417
:10233000B8018EEF93E00E945304B80188E094E066
:102340000E945304809100019091010101979093A4
:1023500001018093000180915202909153020197F4
:102360009093530280935202A814B90409F0B9CF94
:102370002296CC16DD0609F0B0CF0F5F1F4FF2E0BA
:10238000EF0EF11CA0CFDF91CF911F910F91FF9025
:10239000EF90DF90CF90BF90AF909F908F90089577
:1023A0002F923F924F925F926F927F928F929F9265
:1023B000AF92BF92CF92DF92EF92FF920F931F9353
:1023C000CF93DF93CDB7DEB72C970FB6F894DEBF6F
:1023D0000FBECDBF80917603882321F180915002FA
:1023E0009091510285319105ECF4FC01EE0FFF1F35
:1023F000EA5DFC4F2091060330910703318320836F
:10240000FC01EE0FFF1FE25BFC4F209108033091AF
:102410000903318320831092760301969093510231
:102420008093500220915002309151023A832983C7
:102430008091DD029091DE02A091DF02B091E00276
:102440008B839C83AD83BE838091E1029091E202F5
:10245000A091E302B091E4028F839887A987BA879D
:1024600096E2292E93E0392E3C862B8600E010E080
:10247000812C912C20E8A22E2FE3B22E750164014D
:1024800029813A81021713070CF055C0EB85FC85B2
:1024900060817181072E000C880B990B0E94C4206B
:1024A0002B013C019B01AC016B817C818D819E8164
:1024B0000E942022E894F7F8181624F0F7FAF09416
:1024C000F7F8F094A3019201C701B6010E94A91F79
:1024D0000E948C20AB85BC856D937D93BC87AB87B8
:1024E00096966D917C919797072E000C880B990B0F
:1024F0000E94C4202B013C019B01AC016F817885B7
:1025000089859A850E942022E894B7F8181624F04D
:10251000B7FAB094B7F8B094A3019201C501B40121
:102520000E94A91F0E948C20EB85FC8577A366A3DF
:102530000F5F1F4FA5CF121613060CF0D6C01A82DC
:1025400019828091500290915102A981BA81A817F5
:10255000B9078CF4F10160A571A532E0230E311C9E
:1025600041E0808191810E949E1989819A81019622
:102570009A838983E6CFE2E0F3E0FC83EB83E12CEE
:10258000F12C87EF282E82E0382E80915002909116
:102590005102E816F9060CF0A8C00DEE12E08B818E
:1025A0009C81845B9F4F9A8389836091DD02709147
:1025B000DE028091DF029091E0020E94FF204B0139
:1025C0005C01D801CD90DD908D01EB81FC8164A18F
:1025D00075A1072E000C880B990B0E94C4202B01BB
:1025E0003C01B601DD0C880B990B0E94C420A501AB
:1025F00094010E94A91F9B01AC01C301B2010E947A
:102600001520811164C06091E1027091E202809115
:10261000E3029091E4020E94FF204B015C01A9813A
:10262000BA816D917C91072E000C880B990B0E944A
:10263000C4202B013C01F80160857185072E000C38
:10264000880B990B0E94C420A50194010E94A91F28
:102650009B01AC01C301B2010E941520811137C05A
:10266000B70186E293E00E9453048091500290915A
:1026700051020197909351028093500280915A0227
:1026800090915B02019690935B0280935A02809135
:10269000D5029091D602A091D702B091D802809332
:1026A000DD029093DE02A093DF02B093E0028091FE
:1026B000D9029091DA02A091DB02B091DC02809302
:1026C000E1029093E202A093E302B093E4022016A9
:1026D000310609F06ACFFFEFEF1AFF0A2B813C8128
:1026E0002E5F3F4F3C832B8350CF2C960FB6F89430
:1026F000DEBF0FBECDBFDF91CF911F910F91FF9035
:10270000EF90DF90CF90BF90AF909F908F907F9091
:102710006F905F904F903F902F9008958F929F926F
:10272000AF92BF92CF92DF92EF92FF920F931F93DF
:10273000CF93DF938091400290914102A091420299
:10274000B09143020E94C7036B017C01809102019A
:102750009091030102970CF4A9C080915F0281114E
:1027600045C020E030E040EA50E4C701B6010E94D5
:1027700021214B015C012CEE31E548E35DEB0E9429
:10278000202218169CF52CEE31E548E35DE3C501E7
:10279000B4010E94152087FF29C020E030E040EA04
:1027A00050E4C701B6010E94202287FD1FC060913E
:1027B000DD027091DE028091DF029091E0020E94C2
:1027C0008C2070932704609326046091E10270913D
:1027D000E2028091E3029091E4020E948C207093C7
:1027E00029046093280481E080935F0280915F0256
:1027F000811117C06091060370910703C0912604F0
:10280000D09127040091080310910903E090280457
:10281000F0902904D0905E02C0905F02ACE0B3E07B
:102820001CC0CAE2D4E0FE01229660912804709197
:10283000290482859385680F791F209126043091A1
:1028400027048081918141E0820F931F0E949E198D
:1028500024E0C433D20739F7CDCF8D919D91860FF7
:10286000971FEAE2F4E0219131912C0F3D1F82176E
:10287000930781F41A964D915C911B97400F511F5D
:10288000208531852E0D3F1D4217530719F4C12CA9
:10289000DD24D39424E0E433F20729F783E0A83160
:1028A000B807D9F6D0925E02C0925F02DF91CF9155
:1028B0001F910F91FF90EF90DF90CF90BF90AF905E
:1028C0009F908F90089580915E02882399F0809167
:1028D000380290913902A0913A02B0913B020E94D5
:1028E000C70320E030E040E251E40E94202287FF4D
:1028F00010925E0208957D9B1BC080915C02811145
:1029000017C081E080935C0280914C0290914D024F
:10291000A0914E02B0914F020E946A230E9494043B
:1029200010924C0210924D0210924E0210924F02E1
:1029300080915C02882361F10E9496190E9495069D
:102940000E9478070E94F70B0E9435080E94080732
:102950000E94A80C0E9428070E94EC0E0E940A10F8
:102960000E94B2100E94D0110E948E130E94631424
:102970000E94710E809100019091010118161906B4
:102980001CF081E0809361020E94920E0C948319E6
:1029900008950E946B060E947B14FDCF8091E80091
:1029A00080FFFCCF089581E08093D70080EA809378
:1029B000D80082E189BD09B400FEFDCF80E9809393
:1029C000D8001092E00010926802109265028CE02C
:1029D0008093E200789408958091680208959FB7EB
:1029E000F89480916802882369F083E08093E9007D
:1029F0002BE68091E80085FD09C082FF03C020938B
:102A0000E800F7CF9FBF8FEF9FEF08958091F1000F
:102A10002091E80025FD03C02BE62093E8009FBF2E
:102A200090E008952FB7F89480916802811102C058
:102A300080E010C083E08093E9008091F200811172
:102A400009C09091E80092FFF3CF95FDF1CF9BE68E
:102A50009093E8002FBF089580916802882371F059
:102A60008FB7F89493E09093E9002BE69091E800FB
:102A700095FF03C02093E800F9CF8FBF0895909190
:102A80006802992371F09FB7F89424E02093E9003D
:102A900020916602222349F02091E80025FD03C021
:102AA0009FBF8FEF0895109266022091E400275E89
:102AB00034E04091E80045FD12C09FBF9091E400D2
:102AC000291304C081E080936602EBCF90916802E5
:102AD000992339F39FB7F8943093E900EACF8093B4
:102AE000F1008091E80085FD03C08AE38093E8004F
:102AF00085E0809367029FBF80E00895909168020F
:102B00009923D1F09FB7F89424E02093E900209115
:102B1000E80025FD02C09FBF0FC08093F1008091A7
:102B2000E80085FD03C08AE38093E80085E0809398
:102B300067029FBF80E008958FEF08950F931F9362
:102B4000CF93DF93DC01CB0120916802222371F047
:102B50002FB7F89434E03093E900309166023323C4
:102B600049F03091E80035FD03C02FBF8FEF43C11E
:102B700010926602C4E0D0E41AE305E0009709F47D
:102B800039C13091E400375E4091E80045FD12C044
:102B90002FBF2091E400321304C081E080936602CD
:102BA000E5CF20916802222309F32FB7F894C09350
:102BB000E900EACF3091F200ED2FE31B4E2F50E0F9
:102BC0008417950708F4E82F8E1B91094E2F50E0CB
:102BD0004134510508F001C1FA01EA5AFF4F0C9443
:102BE000C8223C913093F10011963C913093F10052
:102BF00011963C913093F10011963C913093F10085
:102C000011963C913093F10011963C913093F10074
:102C100011963C913093F10011963C913093F10064
:102C200011963C913093F10011963C913093F10054
:102C300011963C913093F10011963C913093F10044
:102C400011963C913093F10011963C913093F10034
:102C500011963C913093F10011963C913093F10024
:102C600011963C913093F10011963C913093F10014
:102C700011963C913093F10011963C913093F10004
:102C800011963C913093F10011963C913093F100F4
:102C900011963C913093F10011963C913093F100E4
:102CA00011963C913093F10011963C913093F100D4
:102CB00011963C913093F10011963C913093F100C4
:102CC00011963C913093F10011963C913093F100B4
:102CD00011963C913093F10011963C913093F100A4
:102CE00011963C913093F10011963C913093F10094
:102CF00011963C913093F10011963C913093F10084
:102D000011963C913093F10011963C913093F10073
:102D100011963C913093F10011963C913093F10063
:102D200011963C913093F10011963C913093F10053
:102D300011963C913093F10011963C913093F10043
:102D400011963C913093F10011963C913093F10033
:102D500011963C913093F10011963C913093F10023
:102D600011963C913093F10011963C913093F10013
:102D700011963C913093F10011963C913093F10003
:102D800011963C913093F10011963C913093F100F3
:102D900011963C913093F10011963C913093F100E3
:102DA00011963C913093F10011963C913093F100D3
:102DB00011963C913093F10011963C913093F100C3
:102DC00011963C913093F10011963C913093F100B3
:102DD00011963C913093F10011963C913093F100A3
:102DE00011963091E80035FF1093E80000936702D8
:102DF0002FBFC4CE80E0DF91CF911F910F91089536
:102E00008FB7F89490916702992341F094E09093E2
:102E1000E9009AE39093E800109267028FBF08954B
:102E20006091050170910601809107019091080160
:102E3000089580910901089580910A010895809173
:102E40000B0108958091650208959FB7F894209131
:102E50006802222339F022E02093E9002091E80063
:102E600025FD03C09FBF8FEF089521EA2093F10055
:102E700020E22093F1001092F1001092F1001092E4
:102E8000F1001092F10021E02093F1001092F10086
:102E90008093F1008AE38093E8009FBF80E008956B
:102EA0001F920F920FB60F9211248F939F938091D0
:102EB000E1001092E10083FF11C01092E90091E05F
:102EC0009093EB001092EC0092E19093ED0098E06B
:102ED0009093F000109268021092650282FF13C076
:102EE00080916802882379F080916702882359F0E5
:102EF000815080936702811106C084E08093E900CD
:102F00008AE38093E8009F918F910F900FBE0F90FE
:102F10001F9018951F920F920FB60F921124FF92D7
:102F20000F931F932F933F934F935F936F937F93D1
:102F30008F939F93AF93BF93CF93DF93EF93FF93C1
:102F40001092E9008091E80083FF17C1F090F10032
:102F50008091F1000091F1009091F10010E0192BA7
:102F6000C091F1009091F100D0E0D92B2091F100B7
:102F70006091F10092EF9093E800863009F049C02B
:102F800080E392E04AE552E0FC01A591B4910A1772
:102F90001B07D9F4FC013296A591B491CA17DB073F
:102FA000A1F4FC01349645915491FC01369684912C
:102FB00030E0362B2F3F310519F010F02FEF30E0C5
:102FC000281708F4822F3EEF0CC0079648175907C0
:102FD000D9F6D3C0490F511D891B3093E8008823CF
:102FE000A9F09091E800292F2570D9F392FDC8C06F
:102FF000982F813108F090E1FA01292F222351F313
:1030000064916093F10021503196F8CF903149F3EB
:10301000B7C0853049F48EEF8093E8000E94CE144B
:1030200000680093E300ACC0893059F5F110A5C0E9
:103030000093680210926502109267028EEF8093EF
:10304000E80041E08FEE92E04093E9009C012F5FA1
:103050003F4FFC0154915093EB00552359F0F90177
:1030600024912093EC009C012D5F3F4F3196E49119
:10307000E093ED004F5F453011F0C901E5CF8EE1DF
:1030800077C0883051F4F0E8FF1277C00E94CE1468
:10309000809168028093F10049C0813281F481EA15
:1030A000F8126BC00E94CE14E5E0F1E08CE091E0F4
:1030B00021912093F1008E179F07D1F737C08032FE
:1030C000A9F491E2F91259C08091E80082FFFCCF87
:1030D000E5E0F1E08CE091E02091F10021938E1782
:1030E0009F07D1F78BEF8093E80020C0823241F434
:1030F000E1E2FE1242C0009365020E94CE1416C0A7
:10310000811118C00E94CE14F2E8FF120AC0C093C9
:10311000E9008091EB0085FB882780F91092E90097
:1031200001C080E08093F1001092F1008EEF809357
:10313000E80026C0982F9D7F9130F9F492E0F912B3
:103140001CC0012BD1F4CF779FEF9C0F9430A8F4D3
:103150009EEF9093E800C093E900833071F089E11D
:103160008093EB0081E090E001C0880FCA95EAF7F8
:103170008093EA001092EA0003C081E28093EB00A2
:10318000FF91EF91DF91CF91BF91AF919F918F917F
:103190007F916F915F914F913F912F911F910F916F
:1031A000FF900F900FBE0F901F9018959B01AC01E0
:1031B000F89460E079E08DE390E00E94A622DA01C5
:1031C000C9010197A109B109B695A795979587956A
:1031D0009093CD008093CC0082E08093C80088E972
:1031E0008093C90086E08093CA001092AB021092CF
:1031F000AC021092690210926A027894089590913C
:10320000AC029F5F983208F090E02091AB029217D9
:10321000E1F3E92FF0E0E355FD4F80839093AC029A
:1032200088EB8093C900089590916A0280916902A9
:103230009817D1F3909169029F5F903408F090E065
:10324000E92FF0E0E559FD4F8081909369020895E0
:1032500080916A0290916902891708F4805C891B49
:1032600008951F920F920FB60F9211248F939F9380
:10327000EF93FF939091AC028091AB02981304C03E
:1032800088E98093C9000FC08091AB028F5F8832BC
:1032900008F080E0E82FF0E0E355FD4F9081909337
:1032A000CE008093AB02FF91EF919F918F910F9091
:1032B0000FBE0F901F9018951F920F920FB60F928E
:1032C00011242F938F939F93EF93FF939091CE00B0
:1032D00080916A028F5F803408F080E0209169025B
:1032E000821739F0E82FF0E0E559FD4F9083809385
:1032F0006A02FF91EF919F918F912F910F900FBED6
:103300000F901F901895CF93DF9360E080E00E94AC
:103310001F1CC2E6D4E0699181E00E94C41B86E0D4
:10332000CA35D807C1F7DF91CF910895E2E6F4E0FE
:10333000119286E0EA35F807D9F7089584359105AA
:10334000A8F56033710590F59B0173E035952795DD
:103350007A95E1F76770452BA1F044E5429FF001B3
:10336000439FF00D11248E0F9F1FFC01EE59FB4F60
:1033700081E090E001C0880F6A95EAF79081892B7F
:1033800014C044E5429FF001439FF00D11248E0FBD
:103390009F1FFC01EE59FB4F81E090E001C0880FB8
:1033A0006A95EAF7809590818923808308952F920A
:1033B0003F924F925F926F927F928F929F92AF92C5
:1033C000BF92CF92DF92EF92FF920F931F93CF9312
:1033D000DF93CDB7DEB72E970FB6F894DEBF0FBEE2
:1033E000CDBF1C013B012A013A832983841795072D
:1033F00071F57C836B8329813A81621673069CF494
:103400008B819C81281739070CF41AC1A8016B81A4
:103410007C81C1010E949E192B813C812F5F3F4F0F
:103420003C832B83E8CFAB81BC8129813A81A217F1
:10343000B3070CF405C1A8016B817C81C1010E9416
:103440009E198B819C8101979C838B83D4CF89812A
:103450009A816817790751F53A8229822414350434
:103460009CF4A981BA814A165B060CF4E9C0A80154
:10347000B30189819A810E949E1929813A812F5F27
:103480003F4F3A832983EACF29813A8124153505B4
:103490000CF4D6C0A801B30189819A810E949E19BB
:1034A000A981BA811197BA83A983D8CF4215530550
:1034B00054F4872D69807A8069838A83922D832DC5
:1034C0001A01492E582EB20162197309072E000CF9
:1034D000880B990B0E94C4206F83788789879A870D
:1034E00069817A8166197709072E000C880B990B80
:1034F0000E94C4204B015C012F81388549855A8583
:103500000E941A206B837C838D839E8320E030E0B1
:10351000A9010E94202287FF09C08B819C81AD8177
:10352000BE81B0588B839C83AD83BE83C12CD12CCC
:10353000760120E030E0A9016F81788589859A8540
:103540000E94202218160CF077C0421453040CF489
:1035500077C0A801B301C1010E949E192B813C8153
:103560004D815E81C701B6010E94A91F6B017C01DC
:1035700020E030E040E05FE30E94202287FF10C09F
:1035800020E030E0A9016F81788589859A850E94C5
:10359000202218160CF04CC09FEF291A390AC9CF07
:1035A00020E030E0A901C501B4010E9420221816D4
:1035B000CCF529813A812615370514F3A801B3010A
:1035C000C1010E949E19A1E0B0E0BC87AB8720E05A
:1035D00030E0A901C501B4010E942022181614F0A0
:1035E0001C861B8621E030E03E872D8720E030E0FE
:1035F000A901C501B4010E94152087FD02C01E86E5
:103600001D868B859C85AD85BE858A1B9B0B680EB0
:10361000791E20E030E040E85FE3C701B6010E9478
:10362000A81FA4CF89819A81681679063CF6A8CF95
:10363000A1E02A1A31087DCF241435040CF089CF7B
:103640002E960FB6F894DEBF0FBECDBFDF91CF919F
:103650001F910F91FF90EF90DF90CF90BF90AF90B0
:103660009F908F907F906F905F904F903F902F90A2
:1036700008952F923F924F925F926F927F928F9216
:103680009F92AF92BF92CF92DF92EF92FF920F93F1
:103690001F93CF93DF936C014B01190185E0489F85
:1036A00020011124E12CF12C80EA481A51086624EB
:1036B0006394712CF201EE0DFF1DE750FD4FE49174
:1036C0002114310409F4E09500E010E0CE2FD0E0A1
:1036D0005601AE0CBF1CA301002E02C0440F551FA3
:1036E0000A94E2F74C235D23002E02C055954795BE
:1036F0000A94E2F7B401600F711FC5010E949E1980
:103700000F5F1F4F0830110531F78FEFE81AF80AE5
:1037100085E0E816F10471F6DF91CF911F910F91CA
:10372000FF90EF90DF90CF90BF90AF909F908F90E1
:103730007F906F905F904F903F902F900895CF9221
:10374000DF92EF92FF920F931F93CF93DF937B0152
:103750008A016901D82FC0E0F801EC0FF11D40810A
:10376000442349F09601B7018D2F90E00E94391B48
:10377000DB5FCF5FF1CFDF91CF911F910F91FF9072
:10378000EF90DF90CF90089525B12F7D30E2839F99
:10379000C0011124822B85B95F9887E090E070E02A
:1037A0008F989B01082E02C0359527950A94E2F761
:1037B00020FF02C02E9A01C02E988F9A019780F7A1
:1037C0005F9A0895CF93C82F579A249A259A269ADC
:1037D000879A2C985F9A2C9A61E280E00E94C41B21
:1037E0006C2F606880E00E94C41B64E080E00E944F
:1037F000C41B63E180E00E94C41B6CE080E00E9477
:10380000C41B60E280E00E94C41B6CE080E00E9468
:10381000C41B60E480E00E94C41B60E880E0CF919C
:103820000C94C41BCF93DF93C8EFD1E060E081E03C
:103830000E94C41B2197D1F7DF91CF910895CF93B8
:10384000C82F606480E00E94C41B6C2F606880E019
:10385000CF910C94C41BA0E1B0E0E1E3FCE10C9437
:10386000CE227C011B016A01FC0117821682838132
:1038700081FF44C39E012F5F3F4F3901F7019381C0
:10388000F10193FD859193FF81911F01882309F434
:1038900031C3853239F493FD859193FF81911F01E6
:1038A000853239F4B70190E00E9463245601650126
:1038B000E5CF10E0512C912CFFE1F915D8F08B32B7
:1038C00079F038F4803279F08332A1F4F92DF06187
:1038D0002EC08D3261F0803369F4292D21602DC016
:1038E000392D3260932E892D8460982E2AC0E92DBF
:1038F000E86015C097FC2DC020ED280F2A3088F411
:1039000096FE06C03AE0139F200D1124122F19C015
:103910008AE0589E200D1124522EE92DE0629E2E41
:1039200010C08E3231F496FCE5C2F92DF0649F2E62
:1039300008C08C3621F4292D2068922E02C08836CA
:1039400041F4F10193FD859193FF81911F01811154
:10395000B3CF9BEB980F933020F4992D9061805E4C
:1039600007C09BE9980F933008F066C1992D9F7EA0
:1039700096FF16E09F73992E853619F49064992E60
:1039800008C0863621F4392F3068932E02C01111F9
:10399000115097FE07C01C3350F444244394410E49
:1039A00027E00BC0183038F027E017E005C027E00B
:1039B0009CE3492E02C0212F412C560184E0A80E21
:1039C000B11CF6016081718182819381042DA30174
:1039D0000E9475236C01F981FC87F0FF02C0F3FFA0
:1039E00006C091FC06C092FE06C000E205C00DE2D2
:1039F00003C00BE201C000E08C858C7019F001114E
:103A00005AC29BC297FE10C04C0CFC85F4FF04C048
:103A10008A81813309F44A94141474F528E024153A
:103A200078F588E0482E2CC096FC2AC0812F90E0C3
:103A30008C159D059CF03CEFC3163FEFD30674F048
:103A4000892D8068982E0AC0E2E0F0E0EC0FFD1F9F
:103A5000E10FF11D8081803319F411501111F4CF61
:103A600097FE0EC044244394410E812F90E0C81667
:103A7000D9062CF41C1904C04424439401C010E05E
:103A800097FE06C01C141D0434F4C601019605C03F
:103A900085E090E002C081E090E0011101961123E1
:103AA00031F0212F30E02F5F3F4F820F931F252DE4
:103AB00030E08217930714F4581A01C0512C892D55
:103AC000897049F4552039F0B70180E290E00E94F6
:103AD00063245A94F7CF002329F0B701802F90E098
:103AE0000E94632493FC09C0552039F0B70180E39C
:103AF00090E00E9463245A94F7CF97FE4CC0460191
:103B0000D7FE02C0812C912CC60188199909F301B6
:103B1000E80FF91FFE87ED87960124193109388BCC
:103B20002F87012F10E01195019511093FEF8316A2
:103B3000930629F4B7018EE290E00E946324C81432
:103B4000D9044CF08F8598898815990524F4ED8562
:103B5000FE85818101C080E3F1E08F1A91082D85F7
:103B60003E852F5F3F4F3E872D87801691062CF0B4
:103B7000B70190E00E946324D9CFC814D90441F45E
:103B80009A81963320F4953319F43C8534FF81E310
:103B9000B70190E04EC08A81813319F09C859F7EE9
:103BA0009C87B70190E00E946324111105C094FC2A
:103BB00018C085E690E017C0B7018EE290E00E9441
:103BC00063241E5F82E001E0080FF301E80FF11D9E
:103BD0008081B70190E00E946324802F0113F3CF0E
:103BE000E6CF85E490E0B7010E946324D7FC06C0CD
:103BF000C114D10441F4EC85E4FF05C0D194C19413
:103C0000D1088DE201C08BE2B70190E00E946324ED
:103C100080E32AE0C216D1042CF08F5FFAE0CF1ABD
:103C2000D108F7CFB70190E00E946324B701C60125
:103C3000C0960E94632454C1833631F0833779F0F3
:103C4000833509F056C020C0560132E0A30EB11CE6
:103C5000F6018081898301E010E0630112C0560102
:103C6000F2E0AF0EB11CF601C080D18096FE03C019
:103C7000612F70E002C06FEF7FEFC6010E945824F1
:103C80008C01F92DFF7714C0560122E0A20EB11C61
:103C9000F601C080D18096FE03C0612F70E002C0A3
:103CA0006FEF7FEFC6010E944D248C01F92DF06863
:103CB0009F2EF3FD1AC0852D90E008171907A8F470
:103CC000B70180E290E00E9463245A94F4CFF60199
:103CD00097FC859197FE81916F01B70190E00E945A
:103CE000632451105A94015011090115110579F7F7
:103CF000F7C0843611F0893661F5560197FE09C088
:103D000024E0A20EB11CF601608171818281938151
:103D10000AC0F2E0AF0EB11CF60160817181072E7E
:103D2000000C880B990BF92DFF769F2E97FF09C089
:103D300090958095709561957F4F8F4F9F4FF0685C
:103D40009F2E2AE030E0A3010E94CF24C82EC6187F
:103D50003FC0092D853721F40F7E2AE030E01DC0D9
:103D6000097F8F3691F018F4883559F0C3C0803739
:103D700019F0883711F0BEC0006104FF09C004606B
:103D800007C094FE08C0066006C028E030E005C009
:103D900020E130E002C020E132E0560107FF09C017
:103DA00084E0A80EB11CF60160817181828193814B
:103DB00008C0F2E0AF0EB11CF6016081718180E0B5
:103DC00090E0A3010E94CF24C82EC6180F77902E32
:103DD00096FE0BC0092D0E7FC11650F494FE0AC04A
:103DE00092FC08C0092D0E7E05C0DC2C092D03C0F5
:103DF000DC2C01C0D12E04FF0DC0FE01EC0DF11D25
:103E00008081803311F4097E09C002FF06C0D3947B
:103E1000D39404C0802F867809F0D39403FD11C099
:103E200000FF06C01C2DD51480F4150D1D190DC002
:103E3000D51458F4B70180E290E00E946324D39433
:103E4000F7CFD51410F45D1801C0512C04FF10C039
:103E5000B70180E390E00E94632402FF17C001FDD8
:103E600003C088E790E002C088E590E0B7010CC08D
:103E7000802F867859F001FF02C08BE201C080E2FA
:103E800007FD8DE2B70190E00E946324C11638F46B
:103E9000B70180E390E00E9463241150F7CFCA94E9
:103EA000F301EC0DF11D8081B70190E00E946324C5
:103EB000C110F5CF15C0F4E0F51560F584E0581A8F
:103EC00093FE1FC0011127C02C8523FF2AC00EE2DC
:103ED00011E0392D3071932EF8018491811124C0A5
:103EE000552009F4E4CCB70180E290E00E946324FD
:103EF0005A94F6CFF7018681978126C08FEF9FEF06
:103F000023C0B70180E290E00E9463245A945110CC
:103F1000F8CFD8CF512CB701802F90E00E946324B6
:103F2000D3CF02E311E0D5CF91108052B70190E0DA
:103F30000E9463240F5F1F4FCFCF23E0251510F49D
:103F400083E0BDCF512CC0CF6096E2E10C94EA2211
:103F50005058BB27AA270E94C01F0C94CE210E9454
:103F6000C02138F00E94C72120F039F49F3F19F496
:103F700026F40C94BD210EF4E095E7FB0C948E2101
:103F8000E92F0E94DF2158F3BA17620773078407ED
:103F9000950720F079F4A6F50C9419220EF4E0951B
:103FA0000B2EBA2FA02D0B01B90190010C01CA01F3
:103FB000A0011124FF27591B99F0593F50F4503E9E
:103FC00068F11A16F040A22F232F342F4427585F90
:103FD000F3CF469537952795A795F0405395C9F7A8
:103FE0007EF41F16BA0B620B730B840BBAF0915060
:103FF000A1F0FF0FBB1F661F771F881FC2F70EC0FF
:10400000BA0F621F731F841F48F4879577956795D1
:10401000B795F7959E3F08F0B0CF9395880F08F0BD
:104020009927EE0F9795879508950E946A2108F4C5
:1040300081E008950E942E200C94CE210E94C72179
:1040400058F00E94C02140F029F45F3F29F00C9401
:104050008E2151110C941A220C94BD210E94DF2153
:1040600068F39923B1F3552391F3951B550BBB27A7
:10407000AA2762177307840738F09F5F5F4F220FEC
:10408000331F441FAA1FA9F335D00E2E3AF0E0E8E3
:1040900032D091505040E695001CCAF72BD0FE2F2D
:1040A00029D0660F771F881FBB1F261737074807C1
:1040B000AB07B0E809F0BB0B802DBF01FF27935879
:1040C0005F4F3AF09E3F510578F00C948E210C948E
:1040D0001A225F3FE4F3983ED4F38695779567956F
:1040E000B795F7959F5FC9F7880F911D96958795AE
:1040F00097F90895E1E0660F771F881FBB1F6217CD
:1041000073078407BA0720F0621B730B840BBA0B8A
:10411000EE1F88F7E09508950E9493206894B111EE
:104120000C941A2208950E94E72188F09F5798F076
:10413000B92F9927B751B0F0E1F0660F771F881FAC
:10414000991F1AF0BA95C9F714C0B13091F00E94C6
:104150001922B1E008950C941922672F782F88272F
:10416000B85F39F0B93FCCF3869577956795B395ED
:10417000D9F73EF490958095709561957F4F8F4F5C
:104180009F4F0895E89409C097FB3EF49095809561
:10419000709561957F4F8F4F9F4F9923A9F0F92F0D
:1041A00096E9BB279395F695879577956795B7958B
:1041B000F111F8CFFAF4BB0F11F460FF1BC06F5F71
:1041C0007F4F8F4F9F4F16C0882311F096E911C083
:1041D000772321F09EE8872F762F05C0662371F0A4
:1041E00096E8862F70E060E02AF09A95660F771FB8
:1041F000881FDAF7880F9695879597F908950E949A
:10420000012290F09F3748F4911116F00C941A2275
:1042100060E070E080E89FEB089526F41B16611DB6
:10422000711D811D0C9494210C94AF210E94C0211A
:1042300020F019F00E94C72150F40C94BD210C9479
:104240001A22E92F0E94DF2188F35523B1F3E7FBFF
:104250006217730784079507A8F189F3E92FFF27F1
:1042600088232AF03197660F771F881FDAF7952F7A
:104270005527442332F091505040220F331F441FE2
:10428000D2F7BB27E91BF50B621B730B840BB1093B
:10429000B1F222F4620F731F841FB11D31972AF00F
:1042A000660F771F881FBB1FEFCF9150504062F001
:1042B00041F0882332F0660F771F881F91505040DD
:1042C000C1F793950C94AF218695779567959F5F7D
:1042D000D9F7F7CF990F0008550FAA0BE0E8FEEFCA
:1042E00016161706E807F907C0F012161306E407BA
:1042F000F50798F0621B730B840B950B39F40A26B3
:1043000061F0232B242B252B21F408950A2609F490
:10431000A140A6958FEF811D811D089597F99F6794
:1043200080E870E060E00895882371F4772321F03D
:104330009850872B762F07C0662311F499270DC05C
:104340009051862B70E060E02AF09A95660F771FF7
:10435000881FDAF7880F9695879597F908959F3FFC
:1043600031F0915020F4879577956795B795880F30
:10437000911D9695879597F908959FEF80EC089584
:1043800000240A9416161706180609060895002434
:104390000A9412161306140605060895092E0394AE
:1043A000000C11F4882352F0BB0F40F4BF2B11F422
:1043B00060FF04C06F5F7F4F8F4F9F4F089557FD81
:1043C0009058440F551F59F05F3F71F04795880F83
:1043D00097FB991F61F09F3F79F08795089512161A
:1043E00013061406551FF2CF4695F1DF08C01616C6
:1043F00017061806991FF1CF869571056105089477
:1044000008950E94E721A0F0BEE7B91788F4BB2702
:104410009F3860F41616B11D672F782F8827985F94
:10442000F7CF869577956795B11D93959639C8F323
:104430000895E894BB2766277727CB0197F908955D
:104440000E946A2108F48FEF08950E9438220C948C
:10445000CE210E94C02138F00E94C72120F0952370
:1044600011F00C948E210C94BD2111240C941A226D
:104470000E94DF2170F3959FC1F3950F50E0551F07
:10448000629FF001729FBB27F00DB11D639FAA27A9
:10449000F00DB11DAA1F649F6627B00DA11D661FF8
:1044A000829F2227B00DA11D621F739FB00DA11D19
:1044B000621F839FA00D611D221F749F3327A00DD3
:1044C000611D231F849F600D211D822F762F6A2F6F
:1044D00011249F5750409AF0F1F088234AF0EE0FD4
:1044E000FF1FBB1F661F771F881F91505040A9F701
:1044F0009E3F510580F00C948E210C941A225F3F50
:10450000E4F3983ED4F3869577956795B795F7953C
:10451000E7959F5FC1F7FE2B880F911D96958795B4
:1045200097F9089597FB072E16F4009407D077FDAE
:1045300009D00E94052307FC05D03EF49095819593
:104540009F4F0895709561957F4F0895A1E21A2EAF
:10455000AA1BBB1BFD010DC0AA1FBB1FEE1FFF1F27
:10456000A217B307E407F50720F0A21BB30BE40B77
:10457000F50B661F771F881F991F1A9469F76095BE
:104580007095809590959B01AC01BD01CF01089578
:10459000EE0FFF1F0590F491E02D09942F923F92AA
:1045A0004F925F926F927F928F929F92AF92BF9243
:1045B000CF92DF92EF92FF920F931F93CF93DF93EF
:1045C000CDB7DEB7CA1BDB0B0FB6F894DEBF0FBE4C
:1045D000CDBF09942A88398848885F846E847D8499
:1045E0008C849B84AA84B984C884DF80EE80FD809B
:1045F0000C811B81AA81B981CE0FD11D0FB6F89411
:10460000DEBF0FBECDBFED010895AA1BBB1B51E15C
:1046100007C0AA1FBB1FA617B70710F0A61BB70B32
:10462000881F991F5A95A9F780959095BC01CD01D7
:1046300008958F929F92AF92BF92CF92DF92EF92A6
:10464000FF92CF93DF93EC01688179818A819B810E
:10465000611571058105910521F464E279ED8BE521
:1046600097E02DE133EF41E050E00E942D25490114
:104670005A019B01AC01A7EAB1E40E944C256B01F1
:104680007C01ACEEB4EFA50194010E945A25DC0137
:10469000CB018C0D9D1DAE1DBF1DB7FF03C0019743
:1046A000A109B04888839983AA83BB839F77DF9150
:1046B000CF91FF90EF90DF90CF90BF90AF909F9001
:1046C0008F9008950E94192308958CE091E00E9434
:1046D00019230895A0E0B0E080930C0190930D01A0
:1046E000A0930E01B0930F010895283008F027E041
:1046F0003327DA01990F311D87FD9160009661051E
:10470000710539F432602E5F3D9330E32A95E1F76D
:1047100008959F3F30F080387105610509F03C5FD6
:104720003C5F3D93913008F08068911DDF93CF93FB
:104730001F930F93FF92EF92192F987F9695E92F71
:1047400096959695E90FFF27E057FE4F9927332757
:10475000EE24FF24A701E70105900894079428F4AC
:10476000360FE71EF81E491F511D660F771F881F61
:10477000991F0694A1F70590079428F4E70EF81EF8
:10478000491F561FC11D770F881F991F661F06946A
:10479000A1F70590079428F4F80E491F561FC71F6C
:1047A000D11D880F991F661F771F0694A1F70590EA
:1047B000079420F4490F561FC71FD81F990F661F73
:1047C000771F881F0694A9F784911095177041F000
:1047D000D695C79557954795F794E7941A95C1F7DD
:1047E000E6E3F1E068941590159135916591959106
:1047F00005907FE27395E118F10A430B560BC90B44
:10480000D009C0F7E10CF11E431F561FC91FD01D70
:104810007EF4703311F48A95E6CFE894015030F0BD
:10482000080F0AF40027021708F4202F2395022FFF
:104830007A3328F079E37D932A95E9F710C07D93C8
:104840002A9589F606949795679537951795179445
:10485000E118F10A430B560BC90BD00998F02395C8
:104860007E9173957A3308F070E37C932013B8F748
:104870007E9170617D9330F0839571E37D9370E359
:104880002A95E1F71124EF90FF900F911F91CF919E
:10489000DF91992787FD90950895FC01059061505F
:1048A00070400110D8F7809590958E0F9F1F089546
:1048B000FC016150704001900110D8F780959095EF
:1048C0008E0F9F1F08950F931F93CF93DF93FB01CC
:1048D000238121FD03C08FEF9FEF2CC022FF16C064
:1048E00046815781248135814217530744F4A081C2
:1048F000B1819D012F5F3F4F318320838C932681AF
:1049000037812F5F3F4F3783268314C08B01EC0123
:10491000FB010084F185E02D0995892BE1F6D80192
:1049200016968D919C911797019617969C938E934E
:104930001697CE01DF91CF911F910F910895AEE0B0
:10494000B0E0E5EAF4E20C94DC220D891E898F893F
:10495000988D26E02C831A83098397FF02C080E09C
:1049600090E801979E838D83AE01455E5F4F698D10
:104970007A8DCE0101960E942B1C4D815E8157FDE0
:104980000AC02F813885421753070CF49A01F801A9
:10499000E20FF31F10822E96E4E00C94F822FA0145
:1049A000AA27283051F1203181F1E8946F936E7F6E
:1049B0006E5F7F4F8F4F9F4FAF4FB1E03ED0B4E05F
:1049C0003CD0670F781F891F9A1FA11D680F791FA0
:1049D0008A1F911DA11D6A0F711D811D911DA11DB1
:1049E00020D009F468943F912AE0269F11243019C1
:1049F000305D3193DEF6CF010895462F4770405D5C
:104A00004193B3E00FD0C9F7F6CF462F4F70405D0A
:104A10004A3318F0495D31FD4052419302D0A9F765
:104A2000EACFB4E0A6959795879577956795BA955F
:104A3000C9F700976105710508959B01AC010A2E25
:104A400006945795479537952795BA95C9F7620FFC
:104A5000731F841F951FA01D0895052E97FB1EF43C
:104A600000940E94442557FD07D00E94A62207FC0F
:104A700003D04EF40C9444255095409530952195E3
:104A80003F4F4F4F5F4F089590958095709561957A
:104A90007F4F8F4F9F4F08950E945F25A59F900DD8
:104AA000B49F900DA49F800D911D11240895B7FF10
:104AB0000C944C250E944C25821B930B0895A29FB9
:104AC000B001B39FC001A39F700D811D1124911DE2
:104AD000B29F700D811D1124911D0895F894FFCF90
:104AE000050001000700E1000000000801000000CF
:104AF0000900253032640025640044796C616E2021
:104B00004368616C6B006E313034383238353700B1
:104B1000546F6D20616E64204A6572727900496E2F
:104B2000746F20546865005465656E73797665729C
:104B30007365006C766C004C0073003A0054696D2C
:104B4000657374616D703A20253032643A253032D5
:104B500064200D0A0043757272656E74204C657690
:104B6000656C3A202564200D0A004A657272792727
:104B700073204C697665733A202564200D0A005332
:104B8000636F72653A202564200D0A0046697265DC
:104B9000776F726B73206F6E2053637265656E3A28
:104BA000202564200D0A005472617073206F6E20FE
:104BB00053637265656E3A202564200D0A004368D0
:104BC00065657365206F6E2053637265656E3A206C
:104BD0002564200D0A0043686565736520436F6E88
:104BE00073756D65643A202564200D0A0053757055
:104BF00065726D6F64653A202564200D0A0050616E
:104C0000757365643A202564200D0A0047616D655F
:084C1000204F766572210000BF
:040000050080025C19
:00000001FF
